{
  "_format": "hh-sol-artifact-1",
  "contractName": "SavingsPool",
  "sourceName": "contracts/SavingsPool.sol",
  "abi": [
    {
      "inputs": [
        {
          "internalType": "address",
          "name": "_mgmt",
          "type": "address"
        }
      ],
      "stateMutability": "nonpayable",
      "type": "constructor"
    },
    {
      "anonymous": false,
      "inputs": [
        {
          "indexed": false,
          "internalType": "uint256",
          "name": "poolid",
          "type": "uint256"
        },
        {
          "indexed": false,
          "internalType": "address",
          "name": "_joiner",
          "type": "address"
        }
      ],
      "name": "JoinedPool",
      "type": "event"
    },
    {
      "anonymous": false,
      "inputs": [
        {
          "indexed": false,
          "internalType": "uint256",
          "name": "poolid",
          "type": "uint256"
        },
        {
          "indexed": false,
          "internalType": "address",
          "name": "_poolOwner",
          "type": "address"
        },
        {
          "indexed": false,
          "internalType": "uint256",
          "name": "maxParticipants",
          "type": "uint256"
        },
        {
          "indexed": false,
          "internalType": "uint256",
          "name": "contributions",
          "type": "uint256"
        }
      ],
      "name": "PoolStarted",
      "type": "event"
    },
    {
      "anonymous": false,
      "inputs": [
        {
          "indexed": false,
          "internalType": "uint256",
          "name": "poolId",
          "type": "uint256"
        },
        {
          "indexed": false,
          "internalType": "uint256",
          "name": "turnId",
          "type": "uint256"
        },
        {
          "indexed": false,
          "internalType": "address",
          "name": "_address",
          "type": "address"
        },
        {
          "indexed": false,
          "internalType": "uint256",
          "name": "amountClaimed",
          "type": "uint256"
        }
      ],
      "name": "UserClaim",
      "type": "event"
    },
    {
      "anonymous": false,
      "inputs": [],
      "name": "UserContributed",
      "type": "event"
    },
    {
      "inputs": [
        {
          "internalType": "uint256",
          "name": "_id",
          "type": "uint256"
        }
      ],
      "name": "_checkParticipantCount",
      "outputs": [
        {
          "internalType": "uint256",
          "name": "",
          "type": "uint256"
        }
      ],
      "stateMutability": "view",
      "type": "function"
    },
    {
      "inputs": [
        {
          "internalType": "uint256",
          "name": "_poolID",
          "type": "uint256"
        },
        {
          "internalType": "address",
          "name": "_address",
          "type": "address"
        }
      ],
      "name": "_isParticipant",
      "outputs": [
        {
          "internalType": "bool",
          "name": "",
          "type": "bool"
        }
      ],
      "stateMutability": "view",
      "type": "function"
    },
    {
      "inputs": [
        {
          "internalType": "uint256",
          "name": "_poolID",
          "type": "uint256"
        }
      ],
      "name": "claimTurn",
      "outputs": [],
      "stateMutability": "nonpayable",
      "type": "function"
    },
    {
      "inputs": [
        {
          "internalType": "uint256",
          "name": "_poolID",
          "type": "uint256"
        }
      ],
      "name": "contributeToPool",
      "outputs": [],
      "stateMutability": "nonpayable",
      "type": "function"
    },
    {
      "inputs": [
        {
          "internalType": "uint256",
          "name": "_maxParticipants",
          "type": "uint256"
        },
        {
          "internalType": "uint256",
          "name": "_contributionAmt",
          "type": "uint256"
        },
        {
          "internalType": "uint256",
          "name": "_durationPerTurn",
          "type": "uint256"
        },
        {
          "internalType": "bool",
          "name": "_isRestricted",
          "type": "bool"
        }
      ],
      "name": "createPool",
      "outputs": [],
      "stateMutability": "nonpayable",
      "type": "function"
    },
    {
      "inputs": [
        {
          "internalType": "uint256",
          "name": "",
          "type": "uint256"
        },
        {
          "internalType": "address",
          "name": "",
          "type": "address"
        }
      ],
      "name": "depositAmounts",
      "outputs": [
        {
          "internalType": "uint256",
          "name": "",
          "type": "uint256"
        }
      ],
      "stateMutability": "view",
      "type": "function"
    },
    {
      "inputs": [
        {
          "internalType": "uint256",
          "name": "_id",
          "type": "uint256"
        }
      ],
      "name": "joinPool",
      "outputs": [],
      "stateMutability": "nonpayable",
      "type": "function"
    },
    {
      "inputs": [],
      "name": "owner",
      "outputs": [
        {
          "internalType": "address",
          "name": "",
          "type": "address"
        }
      ],
      "stateMutability": "view",
      "type": "function"
    },
    {
      "inputs": [
        {
          "internalType": "uint256",
          "name": "",
          "type": "uint256"
        }
      ],
      "name": "pool",
      "outputs": [
        {
          "internalType": "address",
          "name": "owner",
          "type": "address"
        },
        {
          "internalType": "address",
          "name": "token",
          "type": "address"
        },
        {
          "internalType": "uint256",
          "name": "maxParticipants",
          "type": "uint256"
        },
        {
          "internalType": "uint256",
          "name": "contributionPerParticipant",
          "type": "uint256"
        },
        {
          "internalType": "uint256",
          "name": "durationPerTurn",
          "type": "uint256"
        },
        {
          "internalType": "uint256",
          "name": "startTime",
          "type": "uint256"
        },
        {
          "internalType": "uint256",
          "name": "currentTurn",
          "type": "uint256"
        },
        {
          "internalType": "bool",
          "name": "isActive",
          "type": "bool"
        },
        {
          "internalType": "bool",
          "name": "isRestrictedPool",
          "type": "bool"
        }
      ],
      "stateMutability": "view",
      "type": "function"
    },
    {
      "inputs": [],
      "name": "poolCounter",
      "outputs": [
        {
          "internalType": "uint256",
          "name": "",
          "type": "uint256"
        }
      ],
      "stateMutability": "view",
      "type": "function"
    },
    {
      "inputs": [
        {
          "internalType": "uint256",
          "name": "",
          "type": "uint256"
        },
        {
          "internalType": "uint256",
          "name": "",
          "type": "uint256"
        }
      ],
      "name": "turn",
      "outputs": [
        {
          "internalType": "uint256",
          "name": "turnBal",
          "type": "uint256"
        },
        {
          "internalType": "uint256",
          "name": "endTime",
          "type": "uint256"
        },
        {
          "internalType": "address",
          "name": "currentClaimant",
          "type": "address"
        },
        {
          "internalType": "bool",
          "name": "active",
          "type": "bool"
        },
        {
          "internalType": "bool",
          "name": "claimable",
          "type": "bool"
        }
      ],
      "stateMutability": "view",
      "type": "function"
    }
  ],
  "bytecode": "0x608060405273874069fa1eb16d44d622f2e0ca25eea172369bc1600360006101000a81548173ffffffffffffffffffffffffffffffffffffffff021916908373ffffffffffffffffffffffffffffffffffffffff1602179055503480156200006657600080fd5b50604051620031363803806200313683398181016040528101906200008c9190620001f0565b600073ffffffffffffffffffffffffffffffffffffffff168173ffffffffffffffffffffffffffffffffffffffff1603620000fe576040517f08c379a0000000000000000000000000000000000000000000000000000000008152600401620000f59062000283565b60405180910390fd5b806000806101000a81548173ffffffffffffffffffffffffffffffffffffffff021916908373ffffffffffffffffffffffffffffffffffffffff16021790555033600160006101000a81548173ffffffffffffffffffffffffffffffffffffffff021916908373ffffffffffffffffffffffffffffffffffffffff16021790555050620002a5565b600080fd5b600073ffffffffffffffffffffffffffffffffffffffff82169050919050565b6000620001b8826200018b565b9050919050565b620001ca81620001ab565b8114620001d657600080fd5b50565b600081519050620001ea81620001bf565b92915050565b60006020828403121562000209576200020862000186565b5b60006200021984828501620001d9565b91505092915050565b600082825260208201905092915050565b7f496e76616c696420436f6e747261637420416464726573730000000000000000600082015250565b60006200026b60188362000222565b9150620002788262000233565b602082019050919050565b600060208201905081810360008301526200029e816200025c565b9050919050565b612e8180620002b56000396000f3fe608060405234801561001057600080fd5b50600436106100a95760003560e01c80638df83797116100715780638df83797146101545780638e5815df146101845780639e3079cb146101a0578063cbb83640146101be578063fd32cb4b146101ee578063fe3131121461021e576100a9565b806334e7a19f146100ae57806351ee8167146100ca57806383892507146100e657806388f5b132146101025780638da5cb5b14610136575b600080fd5b6100c860048036038101906100c39190612254565b610256565b005b6100e460048036038101906100df91906122b9565b6108df565b005b61010060048036038101906100fb9190612254565b610f4e565b005b61011c60048036038101906101179190612320565b611371565b60405161012d9594939291906123bf565b60405180910390f35b61013e6113ee565b60405161014b9190612412565b60405180910390f35b61016e60048036038101906101699190612459565b611414565b60405161017b9190612499565b60405180910390f35b61019e60048036038101906101999190612254565b6114e5565b005b6101a8611635565b6040516101b591906124b4565b60405180910390f35b6101d860048036038101906101d39190612254565b61163b565b6040516101e591906124b4565b60405180910390f35b61020860048036038101906102039190612459565b611663565b60405161021591906124b4565b60405180910390f35b61023860048036038101906102339190612254565b611688565b60405161024d999897969594939291906124cf565b60405180910390f35b6000600560008381526020019081526020016000206002015490508061027b8361163b565b036102bb576040517f08c379a00000000000000000000000000000000000000000000000000000000081526004016102b2906125b9565b60405180910390fd5b60008054906101000a900473ffffffffffffffffffffffffffffffffffffffff1673ffffffffffffffffffffffffffffffffffffffff1663fe575a87336040518263ffffffff1660e01b81526004016103149190612412565b602060405180830381865afa158015610331573d6000803e3d6000fd5b505050506040513d601f19601f8201168201806040525081019061035591906125ee565b15610395576040517f08c379a000000000000000000000000000000000000000000000000000000000815260040161038c9061268d565b60405180910390fd5b600060056000848152602001908152602001600020905060006103bb8260030154611730565b90508160090160019054906101000a900460ff16156104e85760008260000160009054906101000a900473ffffffffffffffffffffffffffffffffffffffff16905060008060009054906101000a900473ffffffffffffffffffffffffffffffffffffffff1673ffffffffffffffffffffffffffffffffffffffff16638af9de2d83336040518363ffffffff1660e01b815260040161045b9291906126ad565b602060405180830381865afa158015610478573d6000803e3d6000fd5b505050506040513d601f19601f8201168201806040525081019061049c91906125ee565b905060011515811515146104e5576040517f08c379a00000000000000000000000000000000000000000000000000000000081526004016104dc90612722565b60405180910390fd5b50505b6000600360009054906101000a900473ffffffffffffffffffffffffffffffffffffffff169050818173ffffffffffffffffffffffffffffffffffffffff166370a08231336040518263ffffffff1660e01b81526004016105499190612412565b602060405180830381865afa158015610566573d6000803e3d6000fd5b505050506040513d601f19601f8201168201806040525081019061058a9190612757565b10156105cb576040517f08c379a00000000000000000000000000000000000000000000000000000000081526004016105c2906127f6565b60405180910390fd5b818173ffffffffffffffffffffffffffffffffffffffff1663dd62ed3e33306040518363ffffffff1660e01b81526004016106079291906126ad565b602060405180830381865afa158015610624573d6000803e3d6000fd5b505050506040513d601f19601f820116820180604052508101906106489190612757565b101561070c578073ffffffffffffffffffffffffffffffffffffffff1663095ea7b330846040518363ffffffff1660e01b8152600401610689929190612816565b6020604051808303816000875af11580156106a8573d6000803e3d6000fd5b505050506040513d601f19601f820116820180604052508101906106cc91906125ee565b61070b576040517f08c379a00000000000000000000000000000000000000000000000000000000081526004016107029061288b565b60405180910390fd5b5b8073ffffffffffffffffffffffffffffffffffffffff166323b872dd3330856040518463ffffffff1660e01b8152600401610749939291906128ab565b6020604051808303816000875af1158015610768573d6000803e3d6000fd5b505050506040513d601f19601f8201168201806040525081019061078c91906125ee565b50816006600087815260200190815260200160002060003373ffffffffffffffffffffffffffffffffffffffff1673ffffffffffffffffffffffffffffffffffffffff1681526020019081526020016000208190555082600701339080600181540180825580915050600190039060005260206000200160009091909190916101000a81548173ffffffffffffffffffffffffffffffffffffffff021916908373ffffffffffffffffffffffffffffffffffffffff1602179055508383600701805490500361089f5760018360090160006101000a81548160ff02191690831515021790555042836005018190555082600601600081548092919061089090612911565b919050555061089e85611746565b5b7ff699e742bd69bd778207e5ea6eb05fcff0f4fe72ec9832671235c1abb0a54dac85336040516108d0929190612959565b60405180910390a15050505050565b600073ffffffffffffffffffffffffffffffffffffffff16600360009054906101000a900473ffffffffffffffffffffffffffffffffffffffff1673ffffffffffffffffffffffffffffffffffffffff1603610970576040517f08c379a0000000000000000000000000000000000000000000000000000000008152600401610967906129ce565b60405180910390fd5b600084036109b3576040517f08c379a00000000000000000000000000000000000000000000000000000000081526004016109aa90612a60565b60405180910390fd5b600083036109f6576040517f08c379a00000000000000000000000000000000000000000000000000000000081526004016109ed90612af2565b60405180910390fd5b60008203610a39576040517f08c379a0000000000000000000000000000000000000000000000000000000008152600401610a3090612b5e565b60405180910390fd5b6000600260008154610a4a90612911565b91905081905590506000670de0b6b3a764000085610a689190612b7e565b90506000600360009054906101000a900473ffffffffffffffffffffffffffffffffffffffff1690506000610a9c83611730565b9050808273ffffffffffffffffffffffffffffffffffffffff166370a08231336040518263ffffffff1660e01b8152600401610ad89190612412565b602060405180830381865afa158015610af5573d6000803e3d6000fd5b505050506040513d601f19601f82011682018060405250810190610b199190612757565b1015610b5a576040517f08c379a0000000000000000000000000000000000000000000000000000000008152600401610b51906127f6565b60405180910390fd5b808273ffffffffffffffffffffffffffffffffffffffff1663dd62ed3e33306040518363ffffffff1660e01b8152600401610b969291906126ad565b602060405180830381865afa158015610bb3573d6000803e3d6000fd5b505050506040513d601f19601f82011682018060405250810190610bd79190612757565b1015610c9b578173ffffffffffffffffffffffffffffffffffffffff1663095ea7b330836040518363ffffffff1660e01b8152600401610c18929190612816565b6020604051808303816000875af1158015610c37573d6000803e3d6000fd5b505050506040513d601f19601f82011682018060405250810190610c5b91906125ee565b610c9a576040517f08c379a0000000000000000000000000000000000000000000000000000000008152600401610c919061288b565b60405180910390fd5b5b8173ffffffffffffffffffffffffffffffffffffffff166323b872dd3330846040518463ffffffff1660e01b8152600401610cd8939291906128ab565b6020604051808303816000875af1158015610cf7573d6000803e3d6000fd5b505050506040513d601f19601f82011682018060405250810190610d1b91906125ee565b50806006600086815260200190815260200160002060003373ffffffffffffffffffffffffffffffffffffffff1673ffffffffffffffffffffffffffffffffffffffff168152602001908152602001600020819055506000600560008681526020019081526020016000209050338160000160006101000a81548173ffffffffffffffffffffffffffffffffffffffff021916908373ffffffffffffffffffffffffffffffffffffffff160217905550670de0b6b3a764000088610ddf9190612b7e565b8160030181905550888160020181905550868160040181905550600360009054906101000a900473ffffffffffffffffffffffffffffffffffffffff168160010160006101000a81548173ffffffffffffffffffffffffffffffffffffffff021916908373ffffffffffffffffffffffffffffffffffffffff16021790555080600701339080600181540180825580915050600190039060005260206000200160009091909190916101000a81548173ffffffffffffffffffffffffffffffffffffffff021916908373ffffffffffffffffffffffffffffffffffffffff160217905550858160090160016101000a81548160ff02191690831515021790555060008160090160006101000a81548160ff021916908315150217905550600081600601819055507f1f7d6153e9c9bdacc5c6b9dc395ae7a3a1e779157dbc1bae4aed08ea6b66a3a285338b8b604051610f3b9493929190612bc0565b60405180910390a1505050505050505050565b610f588133611414565b610f97576040517f08c379a0000000000000000000000000000000000000000000000000000000008152600401610f8e90612c51565b60405180910390fd5b600060056000838152602001908152602001600020600601549050600060046000848152602001908152602001600020600083815260200190815260200160002060020160009054906101000a900473ffffffffffffffffffffffffffffffffffffffff1690503373ffffffffffffffffffffffffffffffffffffffff168173ffffffffffffffffffffffffffffffffffffffff161461106c576040517f08c379a000000000000000000000000000000000000000000000000000000000815260040161106390612cbd565b60405180910390fd5b60006006600085815260200190815260200160002060003373ffffffffffffffffffffffffffffffffffffffff1673ffffffffffffffffffffffffffffffffffffffff16815260200190815260200160002054905060006005600086815260200190815260200160002060030154905060006002826110eb9190612b7e565b90506000818410156111ab5783826111039190612cdd565b9050806006600089815260200190815260200160002060003373ffffffffffffffffffffffffffffffffffffffff1673ffffffffffffffffffffffffffffffffffffffff16815260200190815260200160002060008282546111659190612d11565b925050819055508060046000898152602001908152602001600020600088815260200190815260200160002060000160008282546111a39190612cdd565b925050819055505b6000600360009054906101000a900473ffffffffffffffffffffffffffffffffffffffff1690506000600460008a815260200190815260200160002060008981526020019081526020016000206000015490506000811115611287578173ffffffffffffffffffffffffffffffffffffffff1663a9059cbb33836040518363ffffffff1660e01b8152600401611242929190612816565b6020604051808303816000875af1158015611261573d6000803e3d6000fd5b505050506040513d601f19601f8201168201806040525081019061128591906125ee565b505b6000600460008b815260200190815260200160002060008a815260200190815260200160002060020160146101000a81548160ff0219169083151502179055507f22c5114a166ea31c94e350dc7b381d63bc17c364c788f619c7e992bd296b0b6f898933866040516112fc9493929190612d45565b60405180910390a1600560008a815260200190815260200160002060070180549050880361135d576000600560008b815260200190815260200160002060090160006101000a81548160ff02191690831515021790555061135c89611864565b5b611366896119fa565b505050505050505050565b6004602052816000526040600020602052806000526040600020600091509150508060000154908060010154908060020160009054906101000a900473ffffffffffffffffffffffffffffffffffffffff16908060020160149054906101000a900460ff16908060020160159054906101000a900460ff16905085565b600160009054906101000a900473ffffffffffffffffffffffffffffffffffffffff1681565b60008060056000858152602001908152602001600020905060006114378561163b565b905060005b818110156114d757600083600701828154811061145c5761145b612d8a565b5b9060005260206000200160009054906101000a900473ffffffffffffffffffffffffffffffffffffffff1690508573ffffffffffffffffffffffffffffffffffffffff168173ffffffffffffffffffffffffffffffffffffffff16036114c95760019450505050506114df565b81806001019250505061143c565b506000925050505b92915050565b6114ef8133611414565b61152e576040517f08c379a000000000000000000000000000000000000000000000000000000000815260040161152590612c51565b60405180910390fd5b6000600560008381526020019081526020016000206003015490506000600560008481526020019081526020016000206006015490506000151560046000858152602001908152602001600020600083815260200190815260200160002060040160003373ffffffffffffffffffffffffffffffffffffffff1673ffffffffffffffffffffffffffffffffffffffff16815260200190815260200160002060009054906101000a900460ff1615151461161c576040517f08c379a000000000000000000000000000000000000000000000000000000000815260040161161390612e2b565b60405180910390fd5b611627838284611d84565b611630836119fa565b505050565b60025481565b6000806005600084815260200190815260200160002060070180549050905080915050919050565b6006602052816000526040600020602052806000526040600020600091509150505481565b60056020528060005260406000206000915090508060000160009054906101000a900473ffffffffffffffffffffffffffffffffffffffff16908060010160009054906101000a900473ffffffffffffffffffffffffffffffffffffffff16908060020154908060030154908060040154908060050154908060060154908060090160009054906101000a900460ff16908060090160019054906101000a900460ff16905089565b600060028261173f9190612b7e565b9050919050565b60006005600083815260200190815260200160002090506000816006015490506000826004015490506000836007016001846117829190612cdd565b8154811061179357611792612d8a565b5b9060005260206000200160009054906101000a900473ffffffffffffffffffffffffffffffffffffffff16905060006004600087815260200190815260200160002060008581526020019081526020016000209050818160020160006101000a81548173ffffffffffffffffffffffffffffffffffffffff021916908373ffffffffffffffffffffffffffffffffffffffff16021790555082426118379190612d11565b816001018190555060018160020160146101000a81548160ff021916908315150217905550505050505050565b600061186f8261163b565b90506000600360009054906101000a900473ffffffffffffffffffffffffffffffffffffffff16905060005b6001836118a89190612cdd565b8110156119f45760006005600086815260200190815260200160002060070182815481106118d9576118d8612d8a565b5b9060005260206000200160009054906101000a900473ffffffffffffffffffffffffffffffffffffffff16905060006006600087815260200190815260200160002060008373ffffffffffffffffffffffffffffffffffffffff1673ffffffffffffffffffffffffffffffffffffffff168152602001908152602001600020549050600081146119e5578373ffffffffffffffffffffffffffffffffffffffff166323b872dd3084846040518463ffffffff1660e01b81526004016119a0939291906128ab565b6020604051808303816000875af11580156119bf573d6000803e3d6000fd5b505050506040513d601f19601f820116820180604052508101906119e391906125ee565b505b8280600101935050505061189b565b50505050565b6000600560008381526020019081526020016000209050600081600701805480602002602001604051908101604052809291908181526020018280548015611a9757602002820191906000526020600020905b8160009054906101000a900473ffffffffffffffffffffffffffffffffffffffff1673ffffffffffffffffffffffffffffffffffffffff1681526020019060010190808311611a4d575b5050505050905060008151905060008360060154905042600460008781526020019081526020016000206000838152602001908152602001600020600101541015611d7d5760005b82811015611d58576000848281518110611afc57611afb612d8a565b5b6020026020010151905060046000888152602001908152602001600020600084815260200190815260200160002060040160008273ffffffffffffffffffffffffffffffffffffffff1673ffffffffffffffffffffffffffffffffffffffff16815260200190815260200160002060009054906101000a900460ff16158015611bd9575085600301546006600089815260200190815260200160002060008373ffffffffffffffffffffffffffffffffffffffff1673ffffffffffffffffffffffffffffffffffffffff1681526020019081526020016000205410155b15611bee57611be9878483612153565b611d52565b60046000888152602001908152602001600020600084815260200190815260200160002060040160008273ffffffffffffffffffffffffffffffffffffffff1673ffffffffffffffffffffffffffffffffffffffff16815260200190815260200160002060009054906101000a900460ff16158015611cc0575085600301546006600089815260200190815260200160002060008373ffffffffffffffffffffffffffffffffffffffff1673ffffffffffffffffffffffffffffffffffffffff16815260200190815260200160002054105b15611d515760008054906101000a900473ffffffffffffffffffffffffffffffffffffffff1673ffffffffffffffffffffffffffffffffffffffff1663f3290d75826040518263ffffffff1660e01b8152600401611d1e9190612412565b600060405180830381600087803b158015611d3857600080fd5b505af1158015611d4c573d6000803e3d6000fd5b505050505b5b50611adf565b50836006016000815480929190611d6e90612911565b9190505550611d7c85611746565b5b5050505050565b6000600360009054906101000a900473ffffffffffffffffffffffffffffffffffffffff169050818173ffffffffffffffffffffffffffffffffffffffff166370a08231336040518263ffffffff1660e01b8152600401611de59190612412565b602060405180830381865afa158015611e02573d6000803e3d6000fd5b505050506040513d601f19601f82011682018060405250810190611e269190612757565b1015611e67576040517f08c379a0000000000000000000000000000000000000000000000000000000008152600401611e5e906127f6565b60405180910390fd5b818173ffffffffffffffffffffffffffffffffffffffff1663dd62ed3e33306040518363ffffffff1660e01b8152600401611ea39291906126ad565b602060405180830381865afa158015611ec0573d6000803e3d6000fd5b505050506040513d601f19601f82011682018060405250810190611ee49190612757565b1015611fa8578073ffffffffffffffffffffffffffffffffffffffff1663095ea7b330846040518363ffffffff1660e01b8152600401611f25929190612816565b6020604051808303816000875af1158015611f44573d6000803e3d6000fd5b505050506040513d601f19601f82011682018060405250810190611f6891906125ee565b611fa7576040517f08c379a0000000000000000000000000000000000000000000000000000000008152600401611f9e9061288b565b60405180910390fd5b5b8073ffffffffffffffffffffffffffffffffffffffff166323b872dd3330856040518463ffffffff1660e01b8152600401611fe5939291906128ab565b6020604051808303816000875af1158015612004573d6000803e3d6000fd5b505050506040513d601f19601f8201168201806040525081019061202891906125ee565b508160046000868152602001908152602001600020600085815260200190815260200160002060000160008282546120609190612d11565b925050819055508160046000868152602001908152602001600020600085815260200190815260200160002060030160003373ffffffffffffffffffffffffffffffffffffffff1673ffffffffffffffffffffffffffffffffffffffff16815260200190815260200160002081905550600160046000868152602001908152602001600020600085815260200190815260200160002060040160003373ffffffffffffffffffffffffffffffffffffffff1673ffffffffffffffffffffffffffffffffffffffff16815260200190815260200160002060006101000a81548160ff02191690831515021790555050505050565b600060056000858152602001908152602001600020600301549050806006600086815260200190815260200160002060008473ffffffffffffffffffffffffffffffffffffffff1673ffffffffffffffffffffffffffffffffffffffff16815260200190815260200160002060008282546121ce9190612cdd565b9250508190555080600460008681526020019081526020016000206000858152602001908152602001600020600001600082825461220c9190612d11565b9250508190555050505050565b600080fd5b6000819050919050565b6122318161221e565b811461223c57600080fd5b50565b60008135905061224e81612228565b92915050565b60006020828403121561226a57612269612219565b5b60006122788482850161223f565b91505092915050565b60008115159050919050565b61229681612281565b81146122a157600080fd5b50565b6000813590506122b38161228d565b92915050565b600080600080608085870312156122d3576122d2612219565b5b60006122e18782880161223f565b94505060206122f28782880161223f565b93505060406123038782880161223f565b9250506060612314878288016122a4565b91505092959194509250565b6000806040838503121561233757612336612219565b5b60006123458582860161223f565b92505060206123568582860161223f565b9150509250929050565b6123698161221e565b82525050565b600073ffffffffffffffffffffffffffffffffffffffff82169050919050565b600061239a8261236f565b9050919050565b6123aa8161238f565b82525050565b6123b981612281565b82525050565b600060a0820190506123d46000830188612360565b6123e16020830187612360565b6123ee60408301866123a1565b6123fb60608301856123b0565b61240860808301846123b0565b9695505050505050565b600060208201905061242760008301846123a1565b92915050565b6124368161238f565b811461244157600080fd5b50565b6000813590506124538161242d565b92915050565b600080604083850312156124705761246f612219565b5b600061247e8582860161223f565b925050602061248f85828601612444565b9150509250929050565b60006020820190506124ae60008301846123b0565b92915050565b60006020820190506124c96000830184612360565b92915050565b6000610120820190506124e5600083018c6123a1565b6124f2602083018b6123a1565b6124ff604083018a612360565b61250c6060830189612360565b6125196080830188612360565b61252660a0830187612360565b61253360c0830186612360565b61254060e08301856123b0565b61254e6101008301846123b0565b9a9950505050505050505050565b600082825260208201905092915050565b7f506f6f6c2046696c6c6564000000000000000000000000000000000000000000600082015250565b60006125a3600b8361255c565b91506125ae8261256d565b602082019050919050565b600060208201905081810360008301526125d281612596565b9050919050565b6000815190506125e88161228d565b92915050565b60006020828403121561260457612603612219565b5b6000612612848285016125d9565b91505092915050565b7f596f752061726520626c61636b6c69737465642066726f6d2074686520706f6f60008201527f6c20666f722064656661756c74696e6700000000000000000000000000000000602082015250565b600061267760308361255c565b91506126828261261b565b604082019050919050565b600060208201905081810360008301526126a68161266a565b9050919050565b60006040820190506126c260008301856123a1565b6126cf60208301846123a1565b9392505050565b7f596f7520617265206e6f7420616c6c6f77656420696e207468697320706f6f6c600082015250565b600061270c60208361255c565b9150612717826126d6565b602082019050919050565b6000602082019050818103600083015261273b816126ff565b9050919050565b60008151905061275181612228565b92915050565b60006020828403121561276d5761276c612219565b5b600061277b84828501612742565b91505092915050565b7f4e6f7420456e6f75676820546f6b656e7320466f7220746865204465706f736960008201527f7400000000000000000000000000000000000000000000000000000000000000602082015250565b60006127e060218361255c565b91506127eb82612784565b604082019050919050565b6000602082019050818103600083015261280f816127d3565b9050919050565b600060408201905061282b60008301856123a1565b6128386020830184612360565b9392505050565b7f546f6b656e20617070726f76616c206661696c65640000000000000000000000600082015250565b600061287560158361255c565b91506128808261283f565b602082019050919050565b600060208201905081810360008301526128a481612868565b9050919050565b60006060820190506128c060008301866123a1565b6128cd60208301856123a1565b6128da6040830184612360565b949350505050565b7f4e487b7100000000000000000000000000000000000000000000000000000000600052601160045260246000fd5b600061291c8261221e565b91507fffffffffffffffffffffffffffffffffffffffffffffffffffffffffffffffff820361294e5761294d6128e2565b5b600182019050919050565b600060408201905061296e6000830185612360565b61297b60208301846123a1565b9392505050565b7f496e76616c696420746f6b656e00000000000000000000000000000000000000600082015250565b60006129b8600d8361255c565b91506129c382612982565b602082019050919050565b600060208201905081810360008301526129e7816129ab565b9050919050565b7f506f6f6c204e6565647320612056616c6964206e756d626572206f662050617260008201527f7469636970616e74730000000000000000000000000000000000000000000000602082015250565b6000612a4a60298361255c565b9150612a55826129ee565b604082019050919050565b60006020820190508181036000830152612a7981612a3d565b9050919050565b7f456e74657220612076616c696420436f6e747269627574696f6e20416d6f756e60008201527f7400000000000000000000000000000000000000000000000000000000000000602082015250565b6000612adc60218361255c565b9150612ae782612a80565b604082019050919050565b60006020820190508181036000830152612b0b81612acf565b9050919050565b7f456e74657220612076616c6964204475726174696f6e00000000000000000000600082015250565b6000612b4860168361255c565b9150612b5382612b12565b602082019050919050565b60006020820190508181036000830152612b7781612b3b565b9050919050565b6000612b898261221e565b9150612b948361221e565b9250828202612ba28161221e565b91508282048414831517612bb957612bb86128e2565b5b5092915050565b6000608082019050612bd56000830187612360565b612be260208301866123a1565b612bef6040830185612360565b612bfc6060830184612360565b95945050505050565b7f4e6f742061207061727469636970616e7420696e207468697320706f6f6c0000600082015250565b6000612c3b601e8361255c565b9150612c4682612c05565b602082019050919050565b60006020820190508181036000830152612c6a81612c2e565b9050919050565b7f49742773206e6f7420796f7572207475726e20746f20636c61696d0000000000600082015250565b6000612ca7601b8361255c565b9150612cb282612c71565b602082019050919050565b60006020820190508181036000830152612cd681612c9a565b9050919050565b6000612ce88261221e565b9150612cf38361221e565b9250828203905081811115612d0b57612d0a6128e2565b5b92915050565b6000612d1c8261221e565b9150612d278361221e565b9250828201905080821115612d3f57612d3e6128e2565b5b92915050565b6000608082019050612d5a6000830187612360565b612d676020830186612360565b612d7460408301856123a1565b612d816060830184612360565b95945050505050565b7f4e487b7100000000000000000000000000000000000000000000000000000000600052603260045260246000fd5b7f557365722068617320616c726561647920636f6e747269627574656420746f2060008201527f74686973207475726e0000000000000000000000000000000000000000000000602082015250565b6000612e1560298361255c565b9150612e2082612db9565b604082019050919050565b60006020820190508181036000830152612e4481612e08565b905091905056fea2646970667358221220a968bfbac7136ea93e68cae60be6ca8c489be7d4b03e8c39e44851892f53e09f64736f6c63430008130033",
  "linkReferences": {},
  "deployedLinkReferences": {}
}